:020000040800F2
:10000000700600202D020008F30E0008910E000873
:10001000F10E00083303000819100008000000006A
:10002000000000000000000000000000750F000844
:100030003503000800000000F50E0008770F0008E7
:10004000470200084702000847020008470200086C
:10005000470200084702000847020008470200085C
:10006000470200084702000847020008470200084C
:10007000470200084702000847020008470200083C
:10008000470200084702000847020008470200082C
:10009000470200084702000847020008470200081C
:1000A000470200084702000847020008470200080C
:1000B000470200080000000000000000470200089E
:1000C000470200080000000000000000470200088E
:1000D000000000004702000847020008000000007E
:1000E000470200084702000800000000000000006E
:1000F0000000000000000000000000000000000000
:10010000000000000000000000000000470200089E
:10011000000000000000000047020008470200083D
:10012000470200084702000847020008470200088B
:10013000470200080000000000000000000000006E
:10014000470200084702000847020008470200086B
:10015000470200084702000847020008470200085B
:10016000470200084702000847020008000000009C
:1001700047020008470200080000000000000000DD
:1001800047020008470200084702000800F002F892
:1001900000F03CF80AA090E8000C82448344AAF1E5
:1001A0000107DA4501D100F031F8AFF2090EBAE8E3
:1001B0000F0013F0010F18BFFB1A43F0010318479B
:1001C0000C0F00002C0F0000103A24BF78C878C133
:1001D000FAD8520724BF30C830C144BF04680C604D
:1001E000704700000023002400250026103A28BF95
:1001F00078C1FBD8520728BF30C148BF0B60704799
:100200001FB500F03DFF1FBD10B510BD00F058F840
:100210001146FFF7F5FF00F011FF00F076F803B488
:10022000FFF7F2FF03BC00F07DF8000009488047AB
:1002300009480047FEE7FEE7FEE7FEE7FEE7FEE7C8
:10024000FEE7FEE7FEE7FEE704480549054A064BE0
:1002500070470000091000088D01000870000020A0
:100260007006002070020020700200204FF0000293
:1002700000B5134694469646203922BFA0E80C509C
:10028000A0E80C50B1F12001BFF4F7AF090728BF77
:10029000A0E80C5048BF0CC05DF804EB890028BFF3
:1002A00040F8042B08BF704748BF20F8022B11F01C
:1002B000804F18BF00F8012B704770477047704798
:1002C000754600F02BF8AE4605006946534620F00F
:1002D0000700854618B020B5FFF7B6FFBDE82040FF
:1002E0004FF000064FF000074FF000084FF0000BF2
:1002F00021F00701AC46ACE8C009ACE8C009ACE8A5
:10030000C009ACE8C0098D46704710B50446AFF38C
:1003100000802046BDE81040FFF781BF00487047CD
:100320001000002001491820ABBEFEE726000200A5
:100330007047FEE77047000070B5044600F01CF9F6
:100340000546601C02D004480078044400F014F90B
:10035000401BA042FAD370BD000000202DE9F04FF1
:10036000DFF8E091002301270326A9F1040B85B0F3
:100370000F2509F1040AABF1040EDBE007FA03FCD8
:1003800012EA0C027ED00C7904F00304012C01D097
:10039000022C20D1846800945C0006FA04F80494CE
:1003A000009C24EA08040094D1F80C80049C08FA0C
:1003B00004F8009C48EA0408C0F80880446824EA6D
:1003C0000C0491F804C0CCF3001C0CFA03FC4CEABA
:1003D000040CC0F804C00C79E443A4070DD0D0F895
:1003E0000CC04FEA430806FA08F42CEA040C8C68A7
:1003F00004FA08F444EA0C04C4600C7904F0030421
:10040000022C19D1DC0800EB84040294246A4FEA20
:10041000437C4FEADC6CCDF810C005FA0CFC24EAF2
:100420000C04D1F81080DDF810C008FA0CF848EA86
:100430000408029CC4F8208004684FEA430806FAC6
:1004400008FC24EA0C0491F804C00CF0030C0CFA2C
:1004500008FC4CEA040CC0F800C04C6814F4403F9F
:1004600067D0394CD4F860C04CF0010CC4F860C0BF
:10047000246E23F0030C04F001040094334C644414
:10048000029400E055E0A4684FEA837C4FEA1C78B0
:1004900005FA08FC24EA0C04B0F1904F06D0DFF80E
:1004A000B0C0604505D14FF0010C0BE04FF0000CDF
:1004B00008E0DFF8A0C0604502D14FF0020C01E077
:1004C0004FF0070C0CFA08FC4CEA040C029CC4F830
:1004D00008C0D9F80040CC46D1F8048094435FEAC4
:1004E000C82800D51443CCF80040DAF80040D446C0
:1004F000D1F8048094435FEA882800D51443CCF8EF
:100500000040DBF80040DC46D1F8048094435FEA09
:10051000883800D51443CCF80040DEF80040F4469B
:10052000D1F8048094435FEAC83800D51443CCF86E
:1005300000405B1C0C682246DC407FF41FAF05B016
:1005400000F00AB808040140001002400000014019
:10055000000400480008004830BCBDE8C08F426974
:1005600021EA02030A4043EA0241816170470AB16D
:100570008161704781627047014880687047000060
:1005800000000020024881680278114481607047B1
:100590000000002010B50024032000F063F80F20B5
:1005A00000F008F808B1012401E000F025F8204629
:1005B00010BD000070B50E4E05460024307898B18D
:1005C0004FF47A71B1FBF0F00A490968B1FBF0F021
:1005D00000F04AFC40B9102D06D200222946501ED8
:1005E00000F020F8756000E00124204670BD000096
:1005F000000000200C000020094808B5016E41F001
:1006000001010166016E01F001010091816D41F06F
:1006100080518165806D00F08050009008BD000021
:1006200000100240F0B40E4B1B680C46C3F30223CB
:10063000C3F10705042D00D90425191D072901D28E
:10064000002300E0DB1E012606FA05F1491E2140C9
:1006500099409E40761E16403143F0BC00F0DDBC50
:100660000CED00E0064900F0070208684FF6FF03B2
:10067000184040EA0220034A104308607047000017
:100680000CED00E00000FA051649B0F5007F08689F
:10069000C0F3412009D0022805D0086820F4C060CA
:1006A00040F480600860002070470128FBD0086893
:1006B00020F4C06040F4007008600B4832220068EB
:1006C00050430A4AB0FBF2F0401C00E0401E4A6969
:1006D000520501D50028F9D148694005E3D503202A
:1006E00070470000007000400C00002040420F00E6
:1006F0000248006800F4C0607047000000700040CD
:100700000248016841F48071016070470070004048
:100710000248016841F00401016070470010024086
:100720002DE9F0470F4605006BD0494E306800F0C8
:100730000700B84209D2306820F007003843306023
:10074000306800F00700B8425BD12878414C800740
:100750000AD5A868A16801F0F001884204D9A1680F
:1007600021F0F0010143A1602878C0072CD068680F
:10077000032811D0022812D0216898B14905002918
:100780003FDAA16821F003010143A160FFF7F4FE05
:10079000804641F2883910E021688901EFE721683D
:1007A0008903ECE78907EAE7FFF7E6FEA0EB08011B
:1007B000494502D90320BDE8F087A068696800F0C8
:1007C0000C00B0EB810FEFD1287880070AD5A8681C
:1007D000A16801F0F001884204D2A16821F0F00183
:1007E0000143A160306800F00700B8420BD93068BF
:1007F00020F0070038433060306800F00700B8424E
:1008000001D00120D7E72878400705D5A068E9681E
:1008100020F4E0600843A0602878000706D5A068AF
:10082000296920F4605040EAC100A06000F01AF885
:10083000A168094AC1F30311515C01F01F01C840CE
:100840000649086006480068BDE8F047FFF7B2BEF9
:1008500000200240001002408C1000080C00002014
:100860000400002070B52549002318468A68CC682A
:1008700012F00C0204F00306214C4FEA640509D083
:100880000C2A05D0042A32D0082A00D1284670BD8F
:10089000012E10D10B681B0704D4D1F89430C3F398
:1008A000032302E00B68C3F30313164E56F82330FC
:1008B000DAB10C2AEBD1C86800F00300022818D086
:1008C000032818D01846CA68CB68C2F30212C3F3D3
:1008D00006234343521CB3FBF2F2C868C0F34160E5
:1008E000401C4000B2FBF0F070BD184670BD2046C1
:1008F00070BD2046E7E72846E5E70000001002400B
:100900000024F4009C1000082DE9F84304006FD087
:10091000FA4DA86800F00C06E86800F0030720789C
:10092000C00664D576B10C2E01D1012F0AD0A06982
:10093000002828687AD040F001002860FFF71CFEEC
:1009400080465DE02868800702D5A0690028DED0D7
:10095000216A2868000703D5286800F0F00004E049
:10096000D5F89400F02202EA1010814216D9084608
:1009700000F0C2FA00283BD1286840F00800286047
:100980002868216A20F0F000084328606868E1695F
:1009900020F47F4040EA0120686016E0286840F0BB
:1009A000080028602868216A20F0F00008432860C9
:1009B0006868E16920F47F4040EA0120686026B958
:1009C000206A00F099FA0028D5D1FFF74BFFA968FB
:1009D000CB4AC1F30311515C01F01F01C840C94962
:1009E0000860C9480068FFF7E5FD00287ED12EE0C9
:1009F000CAE000BFFFF7C0FDA0EB0800022876D8D0
:100A000028688007F6D5286840F008002860286824
:100A1000216A20F0F000084328606868E16920F44A
:100A20007F4040EA0120686011E0FFE720F001000C
:100A30002860FFF7A1FD804606E000BFFFF79CFDA0
:100A4000A0EB08000228DAD828688007F6D42078BE
:100A5000C00740D0082E18D00C2E01D1032F14D07F
:100A60006068B0F5803F17D0B0F5A02F286817D088
:100A700020F480302860286820F480202860606896
:100A8000E0B1FFF779FD804614E02868800322D5A5
:100A90006068002878D01EE0286840F48030EDE7D8
:100AA00040F480202860F7E7FFF766FDA0EB080020
:100AB0006428A4D828688003F6D50CE0FFF75CFD15
:100AC000804605E0FFF758FDA0EB0800642896D8A3
:100AD00028688003F6D4207880073BD5042E11D0F7
:100AE0000C2E01D1022F0DD0E06801E0AAE1FFE059
:100AF000002828681ED040F480702860FFF73CFD75
:100B000007460CE0286840050CD5E0680028C1D0F5
:100B100008E000BFFFF730FDC01B022893D828680B
:100B20004005F7D56868217C20F0F85040EA016064
:100B300068600FE020F480702860FFF71DFD074615
:100B400005E000BFFFF718FDC01B0228B1D82868D8
:100B50004005F7D42078000729D560690028D5F82A
:100B6000940012D040F00100C5F89400FFF704FD96
:100B7000074604E0FFF700FDC01B022899D8D5F80E
:100B800094008007F6D512E02BE120F00100C5F8B3
:100B90009400FFF7F1FC074605E000BFFFF7ECFC0F
:100BA000C01B022885D8D5F894008007F6D4207899
:100BB000400766D5A86D0027C00008D4A86D40F096
:100BC0008050A865A86D012700F0805000904F4824
:100BD0000168C90512D40168814641F48071016041
:100BE000FFF7CAFC804605E0FFF7C6FCA0EB080053
:100BF00002287DD8D9F80000C005F5D5A0680128E5
:100C000016D00528D5F8900017D020F00100C5F8BF
:100C10009000D5F8900020F0040000BFC5F89000C7
:100C2000A06841F28839C0B1FFF7A6FC80460FE00A
:100C3000D5F8900040F00100F0E740F00400C5F85E
:100C40009000F5E7FFF798FCA0EB080149454FD865
:100C5000D5F890008007F5D50EE0FFF78DFC8046B3
:100C600006E000BFFFF788FCA0EB080149453FD82C
:100C7000D5F890008007F5D41FB1A86D20F0805002
:100C8000A8652078800628D5606A0028D5F89800E5
:100C900012D040F00100C5F89800FFF76DFC074640
:100CA00005E000BFFFF768FCC01B022820D8D5F87C
:100CB00098008007F6D510E020F00100C5F89800F4
:100CC000FFF75AFC074604E0FFF756FCC01B02285A
:100CD0000ED8D5F898008007F6D4A06AF0B30228A1
:100CE00016D00C2E7DD0286820F08070286000E09F
:100CF000A7E0FFF741FC0446A6E000000010024018
:100D00008C1000080C00002004000020007000403F
:100D1000E868E26A00F00301914228D1216B00F0FB
:100D2000700209011039914221D1626B00F4FE4139
:100D3000B1EB022F1BD194F8382000F07841B1EBD1
:100D4000C26F14D1A18F00F4C00249084905A1F572
:100D5000001191420BD194F8401000E06AE049087C
:100D6000490600F0C060A1F1007181424BD00C2E09
:100D700073D02868400170D4286820F08070286003
:100D8000FFF7FAFB064604E0FFF7F6FB801B02289C
:100D900057D828688001F7D4F4E90B016FF00F02EF
:100DA00002EB01110843218A5204490802EB415128
:100DB000A26841EA02210843217D4FF07E424908A2
:100DC00002EB41610843217B40EAC160E968244AA3
:100DD00011400843E860286840F080702860E868A7
:100DE00000E03AE040F08070E860FFF7C5FB0446A1
:100DF00005E000BFFFF7C0FB001B022821D82868D0
:100E00008001F7D527E02868800124D4286840F0C5
:100E100080702860E86840F08070E860FFF7ACFB05
:100E2000044604E0FFF7A8FB001B022809D8286845
:100E30008001F7D50FE000BFFFF79EFB001B0228E3
:100E400002D90320BDE8F88328688001F4D4E8685B
:100E500004490840E8600020F4E70120F2E70000C0
:100E60008C809D01FCFFEEFE10B5401EB0F1807F2E
:100E700001D3012010BD4FF0E02460610F21601705
:100E800000F0CBF80020A06107202061002010BDF9
:100E9000FEE7000010B586B014216846FFF7E6F9BA
:100EA0001148C16C41F00401C164C16C01F004013E
:100EB0000591C16C41F00201C164C06C0B4C00F0A3
:100EC00002000590002208212046FFF750FB082071
:100ED000009001200021CDE90101039169462046DF
:100EE000FFF73CFA06B010BD0010024000040048B5
:100EF000FEE7FEE770470000F8B51C4D06460024EB
:100F0000A86DC00002D5FFF7F3FB0DE0A86D40F01F
:100F10008050A865A86D00F080500090FFF7E8FBB6
:100F2000A96D21F08051A965B0F5007F04D0802E15
:100F300007D94FF003040AE0802E08D9A02E01D86B
:100F400004E001D1022402E0702E00D101240848FF
:100F5000016821F0070121430160006800F00700EB
:100F6000A04201D00120F8BD0020F8BD00100240D1
:100F7000002002407047FFF705BB000010B596B097
:100F800044216846FFF772F9142111A8FFF76EF9A2
:100F90004FF40070FFF778FB08B172B6FEE7FFF779
:100FA000AFFB184850F8901F21F018010160142081
:100FB000009001200290002460210690CDE90741B5
:100FC0000221CDE90A100C9028200D900720CDE9D0
:100FD0000E0168461091FFF797FC08B172B6FEE764
:100FE0000F2011900320CDE912041494042111A8BC
:100FF0001594FFF795FB08B172B6FEE7FFF788FB83
:1010000016B010BD001002400248016841F47001A2
:101010000160704788ED00E0FEE70907090E00282F
:1010200004DB00F1E02080F80014704700F00F00AE
:1010300000F1E02080F8141D70470000FFF7AAFAC5
:10104000FFF79CFFFFF726FF0C4C08212046FFF717
:1010500086FAC820FFF770F9002208212046FFF722
:1010600086FAC820FFF768F9012208212046FFF719
:101070007EFAC820FFF760F9E7E7000000040048A7
:101080004FF04070E1EE100A7047000000000000D1
:10109000000000000102030406070809A086010001
:1010A000400D0300801A060000350C0040420F007E
:1010B00080841E0000093D0000127A000024F40024
:1010C00000366E010048E801006CDC02EC100008FC
:1010D0000000002010000000C8010008FC100008FB
:1010E0001000002060060000E4010008010000007C
:0C10F000100000000000000000093D009E
:040000050800018D61
:00000001FF
